S01700007673636F64652D6275696C642F6C65642E733337B8
S113000000100020FD010000370500003705000046
S113001037050000370500003705000037050000EC
S113002037050000370500003705000037050000DC
S113003037050000370500003705000037050000CC
S113004037050000370500003705000037050000BC
S113005037050000370500003705000037050000AC
S1130060370500003705000037050000370500009C
S1130070370500003705000037050000370500008C
S1130080370500003705000037050000370500007C
S1130090370500003705000037050000370500006C
S11300A0370500003705000037050000370500005C
S11300B0370500003705000037050000370500004C
S11300C0370500003705000037050000370500003C
S11300D0370500003705000037050000370500002C
S11300E0370500003705000037050000370500001C
S11300F0370500003705000037050000370500000C
S113010037050000370500003705000037050000FB
S113011037050000370500003705000037050000EB
S113012037050000370500003705000037050000DB
S113013037050000370500003705000037050000CB
S113014010B5054C237833B9044B13B1044800E0CF
S113015000BF0123237010BD6810002000000000C0
S11301607806000008B5034B1BB10349034800E0BF
S113017000BF08BD000000006C10002078060000DD
S1130180A3F5803A704700BF174B002B08BF134BF1
S11301909D46FFF7F5FF00218B460F461348144A8E
S11301A0121A00F0E1F90E4B002B00D098470D4BCA
S11301B0002B00D098470020002104000D000D48BA
S11301C0002802D00C4800E000BF00F08DF92000A8
S11301D0290000F04BF900F073F900BF000008009B
S11301E00000000000000000001000206810002043
S11301F084100020000000000000000008B500F09A
S11302002DF8124B12498B4212D30020114B124984
S11302108B4218D3FFF7B8FF186850F8224058688B
S113022040F82240013298688242F5D30C33EAE761
S11302300022F8E71C6844F8220001325C68A242FC
S1130240F8D30833E4E70022F8E700BF8006000093
S11302508C0600008C0600008C0600004FF4004160
S11302604FF0FF30124B134A10B59A60D3F8882030
S113027042F47002C3F888200F4A916601F1884164
S113028001F5005210664FF6DF7050660220C3F885
S1130290D000BFF34F8FBFF36F8F08244FF4403368
S11302A00648C0F88041D36004600B6110BD00BFF4
S11302B000ED00E0000000000090005000E100E0CC
S11302C070B5460904460D460FD14FF447710D48E9
S11302D000F030F9334604F01F0485B103F5805370
S11302E0012000FA04F41C6070BD012E05D0064BF9
S11302F0064A022E18BF1346EDE7054BEBE703F55C
S11303000053EDE7900500006880005060820050C3
S11303106480005038B50D460446D8B101281CD07D
S113032002281CD0032803D10C23EB40DB0704D4A0
S113033040F22D410B4800F0FDF83020012141F23C
S11303401003444304F1A04401FA05F504F57034A4
S1130350E55038BD40F2FF13E7E71F23E5E7FF232D
S1130360E3E700BFDB05000038B50D460446D8B10D
S113037001281CD002281CD0032803D10C23EB40F5
S1130380DB0704D440F2FE310B4800F0D3F83020F0
S1130390012142F21003444304F1A04401FA05F59B
S11303A004F57034E55038BD40F2FF13E7E71F232E
S11303B0E5E7FF23E3E700BFDB050000F8B50D46E2
S11303C016461F46044660B301282DD002282DD0BE
S11303D0032803D10C22EA40D30704D44FF4B071AC
S11303E01B4800F0A7F826B12946204607B3FFF7BB
S11303F091FF04EB4403072D4FF00F014FEA031361
S113040019D8A80006FA00F281401248184400F0F6
S11304109AF8E6B929462046AFB1BDE8F840FFF79F
S113042079BF40F2FF12D6E71F22D4E7FF22D2E7BA
S1130430FFF79AFFDDE7A5F10800800006FA00F255
S113044081400548E2E7BDE8F840FFF78DBFF8BDFD
S11304502706000004C003500CC00350024B186868
S1130460C0F30740704700BF0080E00F08B5FFF7F6
S1130470F5FF01280ED10E4B04205A6E4FF4802351
S11304800C49520358BF0C4A4B6601F510410862EF
S113049058BF536601213A20FFF712FF00230422BC
S11304A018461146FFF78AFF1022044B1A61FDE734
S11304B0008000500090005000A0005000D0035075
S11304C008B5074B044613B1002100E000BF054BFB
S11304D01868836A03B19847204600F029F800BFE2
S11304E0000000007406000070B50D4D00260D4C90
S11304F0641BA410A64209D10B4D00260B4C00F03E
S11305003BF8641BA410A64205D170BD55F8043B0A
S113051001369847EEE755F8043B01369847F2E771
S11305206010002060100020601000206410002083
S1130530FEE700BFFEE7FEE7EFF3108072B67047F8
S113054000B962B6704770B5054614460E46FFF70B
S1130550F3FF296881EA040202EA06044C402C6095
S1130560BDE87040FFF7ECBF02440346934200D15C
S1130570704703F8011BF9E7F8B500BFF8BC08BCE5
S11305809E467047F8B500BFF8BC08BC9E4670474D
S1130590433A2F55736572732F68696575322F530B
S11305A0696D706C696369747953747564696F2FCC
S11305B053444B732F6765636B6F5F73646B2F706A
S11305C06C6174666F726D2F656D6C69622F7372E6
S11305D0632F656D5F636D752E6300433A2F55730A
S11305E06572732F68696575322F53696D706C6914
S11305F06369747953747564696F2F53444B732F13
S11306006765636B6F5F73646B2F706C6174666F87
S1130610726D2F656D6C69622F696E632F656D5FF6
S11306206770696F2E6800433A2F55736572732F94
S113063068696575322F53696D706C696369747983
S113064053747564696F2F53444B732F6765636BE1
S11306506F5F73646B2F706C6174666F726D2F655E
S11306606D6C69622F7372632F656D5F6770696F5C
S10B06702E63000000100020BD
S10B067808FBFF7F01000000F4
S10F06808C060000001000201A0000008E
S113068C000000000000000000000000000000005A
S113069C000000000000000000000000000000004A
S11306AC000000000000000000000000000000003A
S11306BC000000000000000000000000000000002A
S11306CC000000000000000000000000000000001A
S11306DC000000000000000000000000000000000A
S10B06EC65010000410100005A
S90301FDFE
