S00A00006C65642E733337B5
S113000000100020510300002315000023150000F8
S113001023150000231500002315000023150000FC
S113002023150000231500002315000023150000EC
S113003023150000231500002315000023150000DC
S113004023150000231500002315000023150000CC
S113005023150000231500002315000023150000BC
S113006023150000231500002315000023150000AC
S1130070231500002315000023150000231500009C
S1130080231500002315000023150000231500008C
S1130090231500002315000023150000231500007C
S11300A0231500002315000023150000231500006C
S11300B0231500002315000023150000231500005C
S11300C0231500002315000023150000231500004C
S11300D0231500002315000023150000231500003C
S11300E0231500002315000023150000231500002C
S11300F0231500002315000023150000231500001C
S1130100231500002315000023150000231500000B
S113011023150000231500002315000023150000FB
S113012023150000231500002315000023150000EB
S113013023150000231500002315000023150000DB
S113014010B5054C237833B9044B13B1044800E0CF
S113015000BF0123237010BD7C10002000000000AC
S11301608C17000008B5034B1BB10349034800E09A
S113017000BF08BD00000000801000208C170000A4
S1130180A3F5803A704700BF174B002B08BF134BF1
S11301909D46FFF7F5FF00218B460F461348144A8E
S11301A0121A01F022FA0E4B002B00D098470D4B87
S11301B0002B00D098470020002104000D000D48BA
S11301C0002802D00C4800E000BF01F071F92000C3
S11301D0290001F094F901F057F900BF000008006C
S11301E00000000000000000001000207C1000202F
S11301F09C100020000000000000000008B501F081
S1130200ABF801280ED1114B04205A6E4FF4802311
S11302100F49520358BF0F4A4B6601F5104108625B
S113022058BF536601213A2000F00EFB042200233C
S11302301146184601F040F8102207490748084BB8
S11302400A610261013BFDD1F9E700BF0080005063
S11302500090005000A0005000D0035000E0035074
S113026040420F0010B5234C00F0A6FC00F098FEAD
S1130270236F23F0070343F00303236701F06EF9B0
S11302801D4B00209B6A9B075EBF01221B4B9A6299
S1130290D4F8203123F0030343F00203C4F82031DF
S11302A0D4F8243123F0070343F00203C4F82431C3
S11302B0D4F8403123F0030343F00203C4F840317F
S11302C0D4F8603123F0030343F00203C4F860312F
S11302D0D4F8403223F0030343F00203C4F840325D
S11302E0D4F8003223F0070343F00203C4F80032C9
S11302F010BD00BF0080005000C0005000E000505E
S113030008B501F029F801280ED10E4B04205A6ECD
S11303104FF480230C49520358BF0C4A4B6601F535
S11303201041086258BF536601F090F801F01CF8C0
S113033001F076F801F03AF8FFF794FFBDE80840C1
S113034001F022B8008000500090005000A000503E
S113035008B500F02DF8124B12498B4212D300203D
S1130360114B12498B4218D3FFF70EFF186850F84F
S11303702240586840F82240013298688242F5D3FE
S11303800C33EAE70022F8E71C6844F82200013243
S11303905C68A242F8D30833E4E70022F8E700BF20
S11303A094170000A0170000A0170000A017000079
S11303B010B54FF400414FF0FF30124B124A9A60CF
S11303C0D3F8882042F47002C3F888200F4A91665B
S11303D001F1884101F5005210664FF6DF70506656
S11303E00220C3F8D000BFF34F8FBFF36F8F0824F0
S11303F04FF440330648C0F88041D36004600B6179
S113040010BD00BF00ED00E00000000000900050AF
S113041000E100E0014B1868704700BF04100020A1
S1130420084B1B6F03F00703022B04D0032B05D0EA
S1130430012B05D0FEE7044B18687047034BFBE71C
S1130440034870470080005004100020081000206A
S1130450002D310108B5FFF7E3FF054B1B6FC3F314
S113046003330133B0FBF3F0024B186008BD00BF47
S113047000800050001000200048704700B4C404FD
S1130480014B1868704700BF08100020054B186026
S1130490054B1B6F03F00703032B01D1FFF7DABFF2
S11304A0704700BF081000200080005000487047CB
S11304B0002D3101014B1868704700BF0C1000205B
S11304C0044BD3F88420D206FBD4D3F88400C0F3C1
S11304D0811070470040005038B5104B0546D3F8E2
S11304E020310C4603F00303022B0BD0032B0DD059
S11304F0012B0FD1FFF78EFF052305B1286004B14E
S1130500236038BDFFF7BCFF0323F6E7FFF7CEFFF8
S11305100223F2E701230020EFE700BF0080005030
S1130520F7B50027114B0197D3F88041064604F034
S11305300304012C0D4608D0022C12D041F27A316A
S11305400B4800F0F7FF3C4604E0394601A8FFF7EA
S1130550C3FF0F240EB1019B336005B12C6003B0BF
S1130560F0BDFFF7A3FF0190F4E700BF0080005047
S11305701416000038B51A4B0546D3F824010C466E
S113058000F00700062821D8DFE800F0280410183E
S11305901C0C1400FFF73EFF052305B1286004B1CD
S11305A0236038BDFFF736FF0623F6E7FFF768FF41
S11305B00323F2E7FFF764FF0423EEE7FFF776FF78
S11305C00223EAE700F0AEFF0723E6E7054840F61A
S11305D0717100F0AFFF00231846DEE70123DCE76A
S11305E0008000501416000038B5104B0546D3F8AF
S11305F040310C4603F00303022B0BD0032B0DD028
S1130600012B0FD100F090FF092305B1286004B13C
S1130610236038BDFFF74EFF0823F6E700F087FF9D
S11306200B23F2E701230020EFE700BF0080005016
S113063038B5164B0546D3F800020C4600F0070007
S1130640042819D8DFE800F020030B0F130000F092
S11306506BFF092305B1286004B1236038BDFFF79F
S113066029FF0823F6E700F062FF0B23F2E7FFF708
S1130670F1FE0E23800AEDE7054841F2384100F00F
S113068059FF00231846E5E70123E3E70080005003
S11306901416000038B5124B0546D3F840320C4608
S11306A003F00303022B0BD0032B0DD0012B0FD12E
S11306B000F03AFF092305B1286004B1236038BD76
S11306C0FFF7F8FE0823F6E700F031FF0B23F2E70B
S11306D0044841F2C33100F02DFF00231846EAE735
S11306E0008000501416000038B5104B0546D3F8AE
S11306F060310C4603F00303022B0BD0032B0DD007
S1130700012B0FD100F010FF092305B1286004B1BB
S1130710236038BDFFF7CEFE0823F6E700F007FF9D
S11307200B23F2E701230020EFE700BF0080005015
S113073010B40F4C0B46D4F8204204F00304012CEF
S11307400ED0022C10D008B1002101600BB10022A0
S11307501A6040F69B7107485DF8044B00F0EABE4E
S11307605DF8044BFFF7B8BE5DF8044BFFF73CBFE0
S1130770008000501416000010B5B0F5207F34D06E
S113078009D8B0F5007F2AD003D898B1B0F5C07F5E
S113079010D0002421E0B0F5607FFAD1154BD3F8D6
S11307A08030C3F301149B0617D5032C15D040F2F7
S11307B085210FE00F4B1C6F230B13F00E0FC4F3B6
S11307C003340AD0032C08D0072C06D00F2C04D0F5
S11307D040F27521084800F0ADFE601C10BD054BC9
S11307E0D3F89040C4F30464F7E7024B1C6FC4F3DE
S11307F08024F2E7008000501416000010B54FF476
S113080000320E4B04469A660020FFF7B5FF41F60E
S1130810713260430A4C0B4BA0428CBF4FF48010E2
S11308200020D969DA639A6822F4401202439A607C
S1130830CA0344BF0022DA6310BD00BF0090005019
S1130840005A62020000035070B5460904460D4682
S11308500FD14FF447710D4800F06CFE334604F09D
S11308601F0485B103F58053012000FA04F41C60D1
S113087070BD012E05D0064B064A022E18BF134642
S1130880EDE7054BEBE703F50053EDE71416000025
S113089068800050608200506480005030B585B09C
S11308A0002380280446019374D02AD8002877D0E6
S11308B0A0F12004412C32D8412C30D8DFE804F0D8
S11308C070737073868686867373903FA6653F73D4
S11308D073732F2F2F2F2F2F8B57737373B0AB730B
S11308E02F2F2F2F2F2F2F2F2F2F2F2F2F702F7092
S11308F07070862F2F2F2F2F2F2F2F2F2F2F2F2F2B
S11309007070B0F5806F61D024D8B0F5007F54D0FA
S11309100BD8B0F5807F68D0B0F5C07F40D040F2EE
S11309207941424800F006FE37E0B0F5607F44D0DC
S1130930F5D8B0F5207F36D0B0F5407FEFD1FFF782
S113094089FD04464FF42070FFF716FFB4FBF0F066
S1130950400821E0B0F5C06F58D00DD8B0F5A06FB5
S113096039D0B0F5B06F3BD0B0F5906FD7D100213E
S113097001A8FFF7FFFD10E0B0F5E06F4BD0B0F534
S1130980F06F4DD0B0F5D06FC9D1002101A8FFF7A9
S11309904FFE02E0FFF744FD0190019805B030BD21
S11309A0FFF758FDF8E7FFF755FD04464FF42070B4
S11309B0FFF7E2FEB4FBF0F0EEE7FFF731FD05468A
S11309C02046FFF7D9FEB5FBF0F0E5E7002101A8CA
S11309D0FFF782FDE1E7002101A8FFF7A9FEDCE7AC
S11309E0002101A8FFF79CFDD7E702934FF0E02315
S11309F01B695B0705D5FFF72DFD0290029B019350
S1130A00CBE703A902A8FFF7EFFDF7E7002101A850
S1130A10FFF7EAFDC1E7002101A8FFF73BFEBCE7B1
S1130A20002101A8FFF760FEB7E700BF141600001D
S1130A3008B58020FFF732FF034B98429EBF4FF466
S1130A408032024B1A6708BD005A620200A00050AF
S1130A501FB50023B0F5807F01937FD027D83828B5
S1130A6000F09C800BD82438092810D809280ED807
S1130A70DFE800F06F6F6F6F0D0D670D368552283C
S1130A8067D007D83D283AD03E2800F08C8040F249
S1130A905A5152E08028FAD1454B1B6F03F00703EB
S1130AA0013B032B47D8DFE803F044413F75B0F521
S1130AB0D06F64D019D8B0F5A06F6FD00AD8B0F554
S1130AC0806F46D0B0F5906FE1D1002001A9FFF707
S1130AD051FD3AE0B0F5B06F33D0B0F5C06FD6D168
S1130AE0002001A9FFF780FD2FE0B0F5006FECD0E6
S1130AF00AD8B0F5E06F56D0B0F5F06FC7D100203A
S1130B0001A9FFF7F1FD20E0B0F5086FBFD1284B34
S1130B10D3F8003103F00303022B35D0032B37D075
S1130B20012B39D1FFF7ACFC032300E0052301932B
S1130B300BE00223FBE740F2AB411E4800F0FAFC55
S1130B4003E0002001A9FFF7EBFC019805B05DF874
S1130B5004FB002001A9FFF7BFFCF6E702934FF066
S1130B60E0231B695B0705D5FFF774FC0C23039393
S1130B70039BDCE703A902A8FFF736FDF8E7002092
S1130B8001A9FFF755FDE0E7FFF794FC0823CEE742
S1130B9000F0C8FC0723CAE70123C8E7002001A925
S1130BA0FFF7C6FDD1E7002001A9FFF773FDCCE7ED
S1130BB000800050141600004FF40022034B5A66C4
S1130BC0012203F580439A62704700BF00900050F1
S1130BD070B5036804460F2B04D940F646316E48BD
S1130BE000F0A8FC63680F2B04D940F649316A4829
S1130BF000F0A0FCA3680F2B04D940F64C316648E2
S1130C0000F098FC237B0F2B04D940F64F31624847
S1130C1000F090FC637B0F2B04D940F652315E4800
S1130C2000F088FCA37B3F2B04D940F655315A4889
S1130C3000F080FCE37B3F2B04D940F65831564842
S1130C4000F078FC2369032B04D940F65B31524849
S1130C5000F070FC6369032B04D940F65E314E4802
S1130C6000F068FCE369012B04D940F661314A487D
S1130C7000F060FC8020FFF7EBFE032800F0828088
S1130C804FF40022454B02215A6645F60E03444AAE
S1130C90C2F88030434B9962012103F58053996275
S1130CA0936DD903FCD4D4E900131B0543EA016313
S1130CB0E17B94F822500B43217B94F8236043EAB0
S1130CC00143617B43EA0133A17B43EA811313614E
S1130CD09169D4E904031B0643EA806301F00041EF
S1130CE00B43A17EE07E0B43217E43EA0143617EF8
S1130CF043EA01239361E369126A002B0CBF0021CC
S1130D00082122F00D0242EA030242EA8002244B47
S1130D1042EA01021A6294F820204FEA421232D1C8
S1130D20986A94F8211020F0330042EA0112024339
S1130D3042F001029A621C4A996D32EA0101FBD128
S1130D40022218498A621A659A6D5200FCD4186905
S1130D50A26820F4700040EA02504FF0004218618B
S1130D60104B9A611DB9022203F580539A6216B999
S1130D7001220E4B9A6294F824301BB1084B0C4AA2
S1130D80C3F8802070BD996A21F0330131430A43CE
S1130D9042EA4502EEE700BF14160000009000503E
S1130DA000C0005000D000500300014000E000509B
S1130DB0F1A7FFFF014B93F9000070479810002042
S1130DC010B543680446072B04D940F67C512A48E1
S1130DD000F0B0FBA368032B04D940F67E512648EB
S1130DE000F0A8FB2378032B04D94FF45861224860
S1130DF000F0A0FB94F90130002B04DA40F6825194
S1130E001D4800F097FB4FF480011C4A637851663B
S1130E104FF4D151022002F5B832516218494F2BD8
S1130E2048604FF0010028BF4F2301F5805148600E
S1130E301169C903FCD4217843EA01235361D4E93D
S1130E4001131B0143EA0123617B0B43217B43EA2A
S1130E5041039360E37BA17B1B0143EA4113617C63
S1130E600B43217C43EA41035360A37C13B16FF429
S1130E70D153536210BD00BF1416000000900050FF
S1130E8000100250014B1880704700BF7210002000
S1130E90014B1880704700BF7010002010B5B0F5EA
S1130EA0207F65D00ED8B0F5007F4FD003D800B3B3
S1130EB0B0F5C07F1DD040F2FF21BDE8104034489A
S1130EC000F038BBB0F5607FF5D14C1E012C06D97B
S1130ED0042904D040F2E2212D4800F02BFB2D4AD6
S1130EE0D2F8803023F0300343EA0413C2F8803090
S1130EF010BD102901F1FF3404D8274B23FA01F166
S1130F00CB0704D440F2B621214800F013FB00F0D3
S1130F1012FB00F01EFB4FF48031204B1D4A196771
S1130F20136F23F4704343EA04331367FFF792FA11
S1130F300446FFF7C5FAC0F10201204600F003FBA6
S1130F4000F03EF8BDE81040FFF772BD4C1E1F2CA8
S1130F5004D940F2F3210E4800F0ECFA0D4BD3F81B
S1130F60901021F0F85141EA0461C3F89010BFE7F2
S1130F704C1E012C04D940F2F921054800F0DAFA9C
S1130F80044B196F21F4806141EA84211967AFE7AA
S1130F90141600000080005016010100009000505B
S1130FA008B50121022000F027F800F0C4FA00F08F
S1130FB0D0FA4FF48032014B1A6708BD00900050FC
S1130FC008B54FF4C070FFF769FCBDE80840044958
S1130FD088428CBF022101214FF42070FFF75EBFCD
S1130FE080F0FA02034A0179D36E23F030030B43F5
S1130FF0D3667047004000502DE9F0410446264B6B
S1131000D3F88420D006FBD4D3F88430C3F38113FF
S11310109C423ED0FFF704FA012C05460BD11F4B2E
S1131020984204D940F247711D4800F083FA012127
S1131030284600F088FA00F0A6FA4FF00072194B27
S113104007465A66204600F0A5FA4FF48063124E14
S1131050621E9340DFF848803367736E9A0103D4AD
S1131060D6F884309B060AD5384600F090FA022C54
S11310700FD12846BDE8F041002100F064BAD6F84B
S113108084309906E9D540F25571404600F052FA91
S1131090E3E7BDE8F08100BF00400050005A62025F
S11310A05F1600000060005007B518B90191FFF702
S11310B0B7F90199064B1B7843B1064B984205D802
S11310C0012003B05DF804EBFFF796BF0220F8E7B8
S11310D099100020005A620238B54FF000420121F5
S11310E0274B5A6603F50C2359604AF6CD33254A3B
S11310F0556C13640D4048BB94680C4009D0224BD6
S1131100224C9960D36ADB0710D4A0420CD14FF073
S1131110FF3401221C4B5A6015B11A4B1C4A1A6445
S113112000F039FA204638BD0130EBE7A0424FF019
S1131130FF3418BF0024ECE70131D36A13F008032D
S113114007D08142F8D16FF00104E5E700210F4890
S1131150F3E78142F7D020210B4A51620121A2F525
S1131160805291600749094A486A800603D4934231
S1131170E9D00133F8E79342E5D00024CCE700BF7F
S113118000900050004009500060095040420F0098
S11311903254FFFF38B54FF00042194B194C5A66D0
S11311A0012203F50C235A604AF6CD33656C23649F
S11311B04378154093401343134AD363A36882785A
S11311C023F0740343EA0213C278002A14BF0422F2
S11311D000221343A3600279837943EA0223236143
S11311E04279C37943EA022363610078FFF774FF0D
S11311F00DB1064B236400F0CEF9012038BD00BFC9
S11312000090005000400950004000503254FFFF4D
S113121038B50D460446D8B101281CD002281CD08C
S1131220032803D10C23EB40DB0704D440F22D4107
S11312300B4800F07FF93020012141F210034443B0
S113124004F1A04401FA05F504F57034E55038BD05
S113125040F2FF13E7E71F23E5E7FF23E3E700BFBF
S1131260AA16000038B50D460446D8B101281CD092
S113127002281CD0032803D10C23EB40DB0704D441
S113128040F2FE310B4800F055F93020012142F2C2
S11312901003444304F1A04401FA05F504F5703445
S11312A0E55038BD40F2FF13E7E71F23E5E7FF23CE
S11312B0E3E700BFAA160000F8B50D4616461F4620
S11312C0044660B301282DD002282DD0032803D171
S11312D00C22EA40D30704D44FF4B0711B4800F049
S11312E029F926B12946204607B3FFF791FF04EBFD
S11312F04403072D4FF00F014FEA031319D8A80038
S113130006FA00F281401248184400F045F9E6B9A3
S113131029462046AFB1BDE8F840FFF779BF40F257
S1131320FF12D6E71F22D4E7FF22D2E7FFF79AFF86
S1131330DDE7A5F10800800006FA00F281400548C7
S1131340E2E7BDE8F840FFF78DBFF8BDF6160000F0
S113135004C003500CC00350024B1868C0F307408C
S1131360704700BF0080E00F07B56B46054A106860
S1131370516803C36846FFF70DFF002003B05DF812
S113138004FB00BF4217000013B50024064A684658
S1131390536F43F00103536700948DF80440FFF743
S11313A021FE204602B010BD0040005030B58BB085
S11313B06C46174D0FCD0FC40FCD0FC495E8030035
S11313C084E80300134BD3F84C21120318D4D3F848
S11313D05041E4B28DF81940FFF7ECFC204480F34F
S11313E008008DF818000C48FFF750F86846FFF71E
S11313F0EFFB4FF4FA70FFF74BFD00200BB030BD4C
S1131400064B1C884FF6FF739C4208BF8C24E1E70F
S11314104C1700000080E00F00F049020001E00FCB
S113142030B587B0084D01AC0FCD0FC42B6801A8AF
S1131430236019238DF80530FFF7C2FC6420FFF701
S113144021FD002007B030BD7417000010B56FF007
S1131450040250210A480B4C12F0800FD3B21BBF78
S113146003F00F03043BA3181B1802F101020CBF85
S113147083F800131976402AEED1002010BD00BF76
S113148000ED00E000E100E008B5074B044613B1AD
S1131490002100E000BF054B1868836A03B1984738
S11314A0204600F029F800BF000000008817000063
S11314B070B50D4D00260D4C641BA410A64209D135
S11314C00B4D00260B4C00F099F8641BA410A642A7
S11314D005D170BD55F8043B01369847EEE755F841
S11314E0043B01369847F2E7741000207410002082
S11314F07410002078100020FEE700BF704708B584
S113150000F05BF8FFF7FAFF00F064F8FEF776FEF0
S1131510FAE77047704770477047704770477047E5
S11315207047FEE7002070474FF4004070474FF4C7
S11315307A707047FEE708B5FEF79EFFBDE80840E5
S11315400021FFF75BB90029CCBF01210021FFF77F
S113155055B902214FF42070FFF7A0BC10B5FEF777
S113156079FF0446FEF7ACFFC0F102012046FFF705
S1131570EAFF01210020FFF797FDFFF721FDBDE8F9
S11315801040FFF755BAEFF3108072B6704700B9F8
S113159062B670477047704770B5054614460E46EC
S11315A0FFF7F1FF296881EA040202EA06044C40CD
S11315B02C60BDE87040FFF7EABF08B5FEF7A0FE57
S11315C0FFF7A7FFFFF7A6FFFFF7A5FFBDE8084059
S11315D0FFF7A2BF08B5FFF7A0FFFFF79FFFFFF7D4
S11315E09EFFBDE80840FFF79BBF024403469342B9
S11315F000D1704703F8011BF9E70000F8B500BFFC
S1131600F8BC08BC9E467047F8B500BFF8BC08BCDF
S11316109E467047433A2F55736572732F68696508
S113162075322F53696D706C69636974795374757D
S113163064696F2F53444B732F6765636B6F5F73DC
S1131640646B2F706C6174666F726D2F656D6C695D
S1131650622F7372632F656D5F636D752E63004334
S11316603A2F55736572732F68696575322F536904
S11316706D706C696369747953747564696F2F5301
S1131680444B732F6765636B6F5F73646B2F706C70
S11316906174666F726D2F656D6C69622F7372630E
S11316A02F656D5F656D752E6300633A5C757365B8
S11316B072735C68696575325C73696D706C6963BB
S11316C069747973747564696F5C73646B735C6754
S11316D065636B6F5F73646B5C706C6174666F726F
S11316E06D5C656D6C69625C696E635C656D5F679A
S11316F070696F2E6800433A2F55736572732F68B3
S1131700696575322F53696D706C696369747953B7
S1131710747564696F2F53444B732F6765636B6FE4
S11317205F73646B2F706C6174666F726D2F656D7F
S11317306C69622F7372632F656D5F6770696F2EBA
S11317406300010304010101090300000B00000010
S11317500B00000002000000000020200000000038
S1131760030000008C8C3C0000000000000000001E
S1131770000000000126000004000000000000003A
S10F178000010000000000001010002018
S10B178CF4E9FF7F01000000F5
S10F1794A0170000001000201F0000003F
S11317A0C0EA2101C0EA210100F0490200800000E2
S11317B00000000000000000000000000000000025
S11317C00000000000000000000000000000000015
S11317D00000000000000000000000000000000005
S11317E000000000000000000000000000000000F5
S11317F000000000000000000000000000000000E5
S113180000000000000000000000000000000000D4
S10F1810FFFFFFFF650100004101000024
S9030351A8
